:020000041000EA
:1000000000B5324B212058609868022188439860DF
:10001000D860186158612E4B002199600221596106
:100020000121F02299502B49196001219960352056
:1000300000F044F80222904214D00621196600F024
:1000400034F8196E01211966002018661A6600F04E
:100050002CF8196E196E196E052000F02FF8012189
:100060000842F9D1002199601B49196000215960AB
:100070001A491B48016001219960EB211966A021F2
:10008000196600F012F800219960164914480160C1
:100090000121996001BC002800D000471248134993
:1000A000086003C880F30888084703B5996A0420EC
:1000B0000142FBD001200142F8D103BD02B5186610
:1000C0001866FFF7F2FF186E186E02BD00000240BE
:1000D000000000180000070000035F00212200005C
:1000E000F4000018222000A00001001008ED00E03C
:1000F00000000000000000000000000074B24E7A12
:1001000000200420F7010010C3010010C5010010F9
:10011000C1010010C1010010C1010010C101001097
:10012000C1010010C1010010C1010010C701001081
:10013000C1010010C1010010C9010010CB01001065
:10014000CD010010CD010010CD010010CD01001037
:10015000CD010010CD010010CD010010CD01001027
:10016000CD010010CD010010CD010010CD01001017
:10017000CD010010CD010010CD010010CD01001007
:10018000CD010010CD010010CD010010CD010010F7
:10019000CD010010CD010010CD010010CD010010E7
:1001A000CD010010CD010010CD010010CD010010D7
:1001B000CD010010CD010010CD010010CD010010C7
:1001C00000BE00BE00BE00BE00BE00BEEFF3058054
:1001D000103800BEF2EB8871ACA20010CCA2001067
:1001E0003402001090A31AE700201F49086006C8D7
:1001F00081F3088810471D48006800282FD10DA4FE
:100200000ECC002902D000F012F8F9E71849194A7B
:10021000002000E001C19142FCD1174988471749ED
:1002200088471749884700BEFDE701C901C29A42C5
:10023000FBD37047CCA20010C0000020500B002060
:100240005CAD001000000420000004205CAD001034
:10025000001004200010042000000000704709482E
:1002600003F0BEF80047000008ED00E0000000D0F9
:10027000500B0020ACB60120891F00108503001030
:10028000792000105756000006005250ABB360535F
:1002900040A0001006005250861C030250A000101F
:1002A000060052505422A29DF497001005005250AF
:1002B000DE65F4685CAD0010F8B5C04610B5064CBC
:1002C0002378002B07D1054B002B02D0044800E017
:1002D00000BF0123237010BD580C00200000000057
:1002E000E8960010044B10B5002B03D003490448D6
:1002F00000E000BF10BDC046000000005C0C002004
:10030000E896001070B582B007F0B6FCD024042542
:10031000019024062168094804F0C6F8084E01F04F
:100320007FFD09F041F90100300004F0BDF8FA2129
:100330006561890001A808F0CDFCF0E7E89600109F
:100340001097001030B583B007F096FCD0240190D0
:10035000240621680A4804F0A7F8012507E0802355
:100360009B046361FA2101A8490008F0B3FC6368AB
:100370005B0E1D42F3D080239B04A361F2E7C046CD
:100380003497001030B585B004F09AF8192000F0C9
:100390004DFAD024802324069B0463620220A361CB
:1003A00000F044FA042303206362A36100F03EFAE4
:1003B000082304206362A36100F038FA10230520AB
:1003C0006362A36100F032FA20236362A36101F04B
:1003D000BFFD002860D10121354801F02BFD3548D3
:1003E00003F0EEFF344803F0EBFF344803F0E8FF7E
:1003F000334A3449344804F057F8344803F0E0FFF6
:10040000334803F0DDFF02230293324B8022019335
:1004100018233149009331480023520000F0F4F8CA
:10042000012806D02E4803F0CBFF0120404205B042
:1004300030BD2C4B802201931F23029000932A4948
:1004400000232A48520000F0DFF8012803D0284892
:1004500003F0B6FFE9E7274803F0B2FF00F0F6F833
:1004600000F03CF901281FD100F082F9012817D1D2
:10047000214803F0A5FFD02508F01AFA1F4803F021
:100480009FFF20242D0664206C6101F07FF864201A
:10049000AC6101F07BF8F6E7194803F091FF9AE7A9
:1004A000184803F08DFFE3E7174803F089FFDBE707
:1004B00030750000789700109C970010CC970010C2
:1004C000E8970010F497001000980010149800109E
:1004D0003C980010F4A001206C9800104503001017
:1004E0007898001014A601209898001005030010B9
:1004F000A4980010CC9800104C9900106C99001032
:100500005897001020990010F09800107047C046CE
:1005100010B5064803F054FF0322054B032105489C
:100520001A7003F0C1FF72B6FEE7C046B89900101A
:10053000A4B601209899001010B5064803F0B4FF46
:100540000322054B032105481A7003F0ADFF72B674
:10055000FEE7C046DC990010A4B60120989900106F
:10056000034B0360034B0B6080235B0013607047F9
:1005700090A00120889C0120034B0360034B0B607B
:100580008023DB001360704738B6012034A60120B9
:1005900030B55C00064DE41864012C190460054870
:1005A0009B021B180B6080235B00136030BDC046AC
:1005B0000CA501200CA10120F0B583B0050007F0C7
:1005C0005BFB0190002D15D0D0263606290032683D
:1005D000094803F069FF094F346808F0E5FF290076
:1005E00003002200380003F05FFF054901A808F06E
:1005F00071FBF1E7034DE7E7089A0010309A00100D
:1006000088130000009A001030B50D0083B00799E0
:10061000019106990091290008F026FA04000128AA
:1006200002D0200003B030BD079B002BF9D0186822
:100630000028F6D0089908F02DFA2900089A0248F7
:1006400003F032FFEDE7C046609A001010B517487E
:1006500003F0B6FE0221164803F026FF154C16489B
:10066000210003F021FF2100144803F01DFFD023D7
:100670001B061968124803F017FF08F095FF0100E8
:10068000104803F011FF104803F09AFE01210F48B3
:1006900003F00AFF02210E4803F006FF03210D4874
:1006A00003F002FF0C4803F08BFE10BD909A00107F
:1006B000B49A0010CC9A0010D09A0010EC9A001056
:1006C000089B00101C9B0010389B0010589B0010CA
:1006D000749B0010949B0010A89B001010B51D483F
:1006E00003F06EFED0231B061C681B48210003F09C
:1006F000DBFE012C14D808F057FF01000400174856
:1007000003F0D2FE80239B019C4204D3144803F0E3
:1007100057FE012010BD2100124803F0C5FEF5E789
:100720002100114803F0C0FE08F03EFF0100040064
:100730000A4803F0B9FE80239B019C4204D30B4876
:1007400003F03EFE0020E5E72100064803F0ACFE82
:10075000F5E7C046C89B0010089B00101C970010CE
:10076000349C00100C9C0010E89B00105C9C001056
:10077000002370B584B00293039302AB01938022EF
:100780000123214D214E009329003000204B5200BF
:1007900008F06AF90400012818D01E4803F010FE82
:1007A000002403AB8022019301231B4D00932900F9
:1007B00030001A4B520008F057F9012812D018489F
:1007C00003F0FEFD0024200004B070BD0298002854
:1007D000E7D0012108F05EF901222900114803F059
:1007E00063FEDEE70398002807D0022108F052F9E3
:1007F000022229000B4803F057FE012CE3D10A48DE
:1008000003F0DEFDDFE7C046909C0010B905001044
:10081000849C00100C9D0010AC9C0010A09C00104B
:10082000E09C0010609A0010BC9C00100123D022B4
:100830008340120693629361094A830094464022E2
:1008400063441968C0004A40C0211140802252010F
:1008500013431960034B9C46052360444360704773
:1008600004C0014000400140024B18688007C00FDF
:100870007047C04600C0064070B5EFF3108C72B6EA
:100880000D4D2B68002BFCD0BFF35F8F0724CB08E6
:10089000C618C05C01230C40A3401C000440034266
:1008A00007D103433370BFF35F8F2C608CF3108844
:1008B00070BD100001F0E4FB2C0100D0F8B54746F4
:1008C000CE46884680B5EFF3108C72B6214D2C6869
:1008D000002CFCD0BFF35F8F9A422CD8D408072796
:1008E000055D061901241740BC402C421FD007218A
:1008F0000127894609E0D408055D06194C463900F0
:100900001440A1400C00294211D001329342F2D28E
:1009100001204042BFF35F8F00220E4B1A608CF320
:10092000108800280FDBC0BCB946B046F8BD2C4388
:1009300010003470EEE7BFF35F8F00232B608CF361
:100940001088012040424346002BECD0089801F06B
:1009500097FBC0462C0100D00021044B044ABFF392
:100960005F8F02C39342FAD17047C046000100D0A6
:10097000800100D0044A1078431CDBB2172B00D949
:10098000102313707047C046400A002010B50100C4
:10099000024A0348FFF770FF10BDC046389D0010A3
:1009A000D011002000B5054B83B001000093182240
:1009B0001F230348FFF782FF03B000BD589D0010BE
:1009C000D011002001238340002904D0034A136082
:1009D000034A13607047034A1360FBE780E200E0BC
:1009E00000E100E080E100E001228240034B1B684F
:1009F00013405A1E9341D8B27047C04600E100E050
:100A000001238340014A13607047C04600E200E0C2
:100A1000084B10309B688000C358002B07D0064A53
:100A200000209B1A2F229A424041C0B270470020FA
:100A3000FCE7C04600ED00E0440A0020024B103005
:100A40009B688000C058704700ED00E070B50D0055
:100A5000EFF3108672B60F4A1368002BFCD0BFF379
:100A60005F8F0D4B10309B6884001B590B4A9342DB
:100A700003D09D4201D001F021FB074B9B681D5123
:100A8000BFF35F8FBFF35F8F0022024B1A6086F3C4
:100A9000108870BD240100D000ED00E0CD010010F1
:100AA000F0B557464E46DE464546E0B585B00600F1
:100AB00002911700EFF3108B72B6674A1368002B90
:100AC000FCD0BFF35F8F0025644B5D579A46002D25
:100AD00000DAA4E06B00624C03935B199B0098461C
:100AE000A146C1444B4652469B79103613705D4B6C
:100AF000B2009B68019299580B1B2F2B34D95A4B8B
:100B0000994200D0A4E0039B584A9C46584B654448
:100B1000AD006353434602336519E418554B012178
:100B2000043B1B1B1B055B0D13436B80524BEF718A
:100B3000AB80FF23AB71029BAB604B460B431900AC
:100B4000484B019A9B689950BFF35F8FBFF35F8F4B
:100B50000022414B1A608BF3108805B0F0BCBB46F5
:100B6000B246A946A046F0BD01200A008243D379CF
:100B7000BB422FD845464E46130040491B1B5B41E4
:100B80005943090D3A4B63533A4B02356519043BFF
:100B90005B1B1B05354D5B0D2B4373800426B44650
:100BA000E0444444131F1B1B4C46A17102991B05D2
:100BB000A16049465B0D2B43A380314BE771014394
:100BC0001360BDE75800C01880002018C679BE42E7
:100BD0002BD902000623D356002BF3DA101D8246D0
:100BE0002848804604267642B446E14450464E46A4
:100BF000361A3005400D824656461C48957106430C
:100C00009680039A944665441D4AAD00641922609B
:100C10004246A371029BA280E771A36090E701F0B6
:100C20004DFA002553465D5754E7101D82469088C3
:100C30004005001584464046D444664604302018DA
:100C4000301AE0260005400D360230438046C9E7E1
:100C500001F034FA57E7C046240100D0A5B60120C0
:100C6000440A002000ED00E0CD01001000E0FFFF8D
:100C700000A1FFFF740A002001BDFFFFAAAA000027
:100C80000148804701BD0000F0B5DE4657464E469C
:100C90004546E0B50C0083B0EFF3108972B6584AB0
:100CA0001368002BFCD0BFF35F8F564B9A6803008C
:100CB00010339F00D559544A9046954232D0A542F0
:100CC00043D0524EAA1B2F2A2CD801228240924692
:100CD00051464F4A12681140019151464D4A1160E8
:100CE000BFF35F8FEFF305829346002A33D10123D0
:100CF0002A009A4393689C4208D177E04B005B1826
:100D00009B00F3189968A1422AD01A000621515677
:100D10000029F3DA019B002B19D052463E4B1A6092
:100D20003B4B1A60374B9B68DD51BFF35F8FBFF3BE
:100D30005F8F0022324B1A6089F3108803B0F0BC39
:100D4000BB46B246A946A046F0BD1500EAE75246AA
:100D5000304B1A60E6E79342C9D001F0AFF9C6E71D
:100D600006215956002921DB4A005018800034180A
:100D70008046A0689860E079D87106202056987166
:100D8000002824DBA488F01A6405241544440019C3
:100D9000E0240005400D24022043988052181F4B88
:100DA0009200B6181A781970B271B3E75946002943
:100DB0000FD1FF3191711A49918018490A789A71BF
:100DC000184A9B1B5B415A43120D0A70A2E7164852
:100DD000E3E7164A1649D21A083A5002400D014379
:100DE0009980144952080A43DA8093E70621515644
:100DF00013000029B8DA5A46002AEAD14546DCE752
:100E0000240100D000ED00E0CD010010440A0020D4
:100E100000E100E080E100E080E200E0A5B6012012
:100E200001BDFFFFAAAA000001BD00007E0A00204C
:100E300000F0FFFF00F8FFFF032310B50400074A8E
:100E400018409446C0009C43FC33834064442268AD
:100E500081409A4313000B43236010BD00E400E07F
:100E6000F0B5EFF30584C646012600B50643EFF35F
:100E7000108C72B61C4A1368002BFCD0BFF35F8F36
:100E80001A4FA400BB681A4D1B5902009846194915
:100E90000023521B52415143090D2A0049B2B0456B
:100EA00015D0062414578C4215D001330C32042B74
:100EB000F7D1114B1A7819708271BFF35F8F00223E
:100EC000094B1A608CF3108880BCB846F0BDBB6833
:100ED0000A4A1A51EDE75A00D3189B00ED18FF2378
:100EE000AB71074BAB80E4E7240100D000ED00E0DC
:100EF000440A0020AAAA0000A5B60120CD010010D6
:100F000001BDFFFF054B064A1360064A136053609C
:100F10009360D360136153619361704780808080D8
:100F200000E400E004E400E000B5074B83B00100FA
:100F30000093002205230548FFF7C0FC002801DBD1
:100F40001F23181A03B000BD749D0010AAB601201B
:100F5000024B9C46614489000160704740000034A8
:100F600010B50400FFF706FD01002000FFF7F0FFB9
:100F700001235B426360BFF35F8F10BD10B50400B7
:100F8000FFF7F8FC01002000FFF7E2FF01235B42BE
:100F9000636000232372BFF35F8F10BD10B50400A0
:100FA0000120FFF7FFFC044B9C466044800020605A
:100FB000BFF35F8F10BDC04640000034034B9C461A
:100FC000614489000160BFF35F8F704740000034C7
:100FD00083680B4810B584466144624409011201DC
:100FE0009A18591854684B6801209C4201D802D0C5
:100FF0000020C0B210BD12680B689A42F9D8F7E71A
:10100000FFFFFF0F074810B50268EFF3108172B6BB
:101010001368002BFCD0BFF35F8F05F0D1FD0020DB
:10102000002110BD3C1B002070B542680400EFF3A6
:10103000108572B61368002BFCD0BFF35F8F206859
:10104000CEB2437BB3420AD0FF230B405A00D318E1
:10105000026894466344033B9B78002B13D0FF2324
:101060000A0A0B40E168D2B28C466344013B19780E
:1010700091420ED000206368BFF35F8F00221A6098
:1010800085F3108870BD22699142F3D1002023615D
:10109000F1E7310000F000FDEDE7C046F8B5574636
:1010A0004E464546DE46E0B599460CAB1D780DAB85
:1010B0001B78060090469A460768002D3BD02B000F
:1010C0006C003A686419033C1119374A9446B268B7
:1010D0006344944642461B0163441A604A465A6080
:1010E0000A9A9A600B9ADA6000238B704B700B702F
:1010F0007B7B9B46002B3ED02A005946B8687B6814
:1011000098473A6800282AD05B4658465B005B4403
:101110001419033BA070D118D35C002B40D15B465F
:101120000D7028007B73AB4526D0F0BCBB46B246A1
:10113000A946A046F8BDB87B0028F6D044003A681E
:101140002418033C11194A780300BA73002A00D10D
:10115000FA73002205008A704A700A70B5E75B4690
:101160005B005B44033BD3189D701119125D002A8C
:1011700018D15B460B707D7342464B46307D00F0C4
:1011800025FB041E06D05346002B03D129003068EE
:1011900000F082FC0E9B2800002BC6D01C70C4E718
:1011A0006370BCE75A70E4E7FFFFFF0FF0B5DE465F
:1011B00057464E4645460023E0B58BB00893674B33
:1011C0008200D45800239B46099000F09FFA626881
:1011D00006000F00EFF3108572B61368002BFCD0E9
:1011E000BFF35F8F23689C465B7B9946002B00D141
:1011F00069E0A2685A4B90464B441B019844434611
:101200001A685B6810001900801BB941002900DCD6
:1012100063E0099800F0DAFA0023002298460023E0
:101220000692079300239A466368BFF35F8F5A467E
:101230001A6085F310885346002B08D10028C4D1CA
:101240000BB0F0BCBB46B246A946A046F0BD089B19
:10125000414618024B461843D047626806000F000B
:10126000EFF3108572B61368002BFCD0BFF35F8FCD
:10127000002F50DB33003B4302D02369002B61D1A8
:101280002368D97B002907D04A00521819688C4678
:1012900049466244033A51709A7B002A01D14A467A
:1012A0009A734A46DA734B46E168013BCA5C0132E5
:1012B000CA545B4623616368BFF35F8F5A461A6066
:1012C00085F3108881E700230022984600230692C8
:1012D0000793002300209A46A6E7002902D10028A0
:1012E00000D096E70021604600F0AAFB43461A684A
:1012F0005B680692079343469B689A464346DB68C1
:101300009846E3684B44013B1B7808931B02034358
:101310002361002088E72369002BB1D0069A079B40
:10132000921BBB41002B15DB59460491012103910F
:101330004946029141460191514620000091FFF734
:10134000ADFEB6E700F0E2F932003B0012184B4167
:10135000002BE9DA0122034B5242E5E78416002014
:10136000FFFFFF0FFFFFFF7F10B5144C6368002BDA
:1013700004D00A211248FFF7EBFD10BD2300114AEB
:101380001021206800F0AAFA032000F0B3F903202E
:1013900000F086FA03200C4900F0D2F9FFF7EAFAD0
:1013A0000A4B9C4603232375D0231B061B6860440D
:1013B0006375074B80006060DC60DAE78C0A002010
:1013C0003C1B0020D10F0010AD1100104000003474
:1013D00084160020004870478C0A0020F0B545466E
:1013E000DE4657464E46E0B58BB01D00149B804646
:1013F0009B46159B14009A4616AB1B7802AA0793CE
:1014000000239946D37743465A68EFF3108672B6A5
:101410001368002BFCD0BFF35F8F02AA94461F23F2
:10142000634404934B4603930293534601935B46F4
:101430002200009340462B00FFF730FE00230028D7
:1014400004D04346DB681B18013B1B7842465268B8
:10145000BFF35F8F4946116086F3108800282FD0B4
:1014600002AAD27F002A08D11B0218430BB0F0BC9D
:10147000BB46B246A946A046F0BD079B002B1DD037
:1014800051460020D847030006000F000B4315D03B
:10149000002907DAA41BBD41002DB4DA01240A4D4E
:1014A0006442B0E700F032F934003D0024184D41A9
:1014B000002DA8DA0124044D6442A4E70020D5E7FA
:1014C00001204042D2E7C046FFFFFF7F407D7047CA
:1014D000F0B54746CE46040080B50D00962676420C
:1014E000F71736196F4185B08F4215D812D000F02A
:1014F0000DF932003B00121A8B41002B16DC002B39
:1015000039D02000290000F00BF905B0C0BCB94665
:10151000B046F0BD8642EAD90026002700F0F6F872
:1015200032003B00121A8B41002BE8DD00230293AE
:101530000193124B3200009311483B00FFF74EFF1E
:101540000028DEDBB846B1460E4F0F4E736A984551
:1015500004D8B26A9145D4D99845D2D13A68EFF30C
:10156000108172B61368002BFCD0BFF35F8F380078
:1015700005F0EAFAEAE7002AC3D0D7E70510001021
:101580008C0A00203C1B00200040054070B506007E
:1015900000F0BCF8FA2204000D0000233000002106
:1015A000920002F07BFD00196941002902DBFFF780
:1015B0008FFF70BD012001494042F8E7FFFFFF7F28
:1015C00070B5EFF3058305000C0084B0002B0AD042
:1015D000164A0020536A9C4203D8926A0130AA42FC
:1015E0001FD304B070BD124E02930193114B020041
:1015F000009330000B00FFF7F1FE011EE8DD20BF75
:101600003000FFF711FD094B0020596A8C42E8D8E1
:101610009B6A0130AB42E4D2641A631E9C41E0B283
:10162000DFE7E41A631E9C41E0B2DAE700400540C0
:101630008C0A002005100010F0B5EFF30582D646A5
:101640004F4646461000C0B51038EFF3108872B60A
:10165000214C2368002BFCD0BFF35F8F01231900BE
:1016600081401E4D1F006963AA461D4D29601D4D16
:101670002E78AC463500C5402F402B4209D1BFF330
:101680005F8F276088F31088E0BCBA46B146A84651
:10169000F0BD5346144D5F6A83005D59AF420ED3CF
:1016A000124A8E439B5862461670BFF35F8F00222A
:1016B000226088F31088002BE6D09847E4E70C4BB3
:1016C00092009C46624413681360BFF35F8F00234F
:1016D000236088F31088D7E7280100D00040054038
:1016E0003C700540A9B60120481B0020B81000201E
:1016F000D03F054010B50100024A0348FFF7BCF88F
:1017000010BDC046909D0010A3B60120034B596A3E
:101710000A00986A596A8A42FAD170470040054027
:10172000064A536A9942FCD807D1044B02E05A6A30
:10173000914202D19A6A8242F9D370470040054033
:1017400070B504000D00EFF3108672B61A4A1368E4
:10175000002BFCD0BFF35F8F002D1BD02000FFF7C4
:101760006DF9164981420AD02000FFF76FF9012177
:101770002000FFF727F90123A340114A1360114B02
:10178000A400E550BFF35F8F00220B4B1A6086F375
:10179000108870BD0B4BA200D5500122A2400A490F
:1017A00020000B7893430B700449FFF76DFA00217A
:1017B0002000FFF707F9E5E7280100D039160010EF
:1017C00038600540B8100020A9B60120F0B54F469A
:1017D000D6464646C0B507002C4C616A0D00A66A85
:1017E000616AA942FAD18B4208D805D00120E0BC39
:1017F000BA46B146A846F0BDB242F7D9EFF3108A17
:1018000072B6234801680029FCD0BFF35F8F012521
:10181000BD4020491D4C8846097889462943C9B2F4
:101820008C46414660460870391D1B488900656337
:101830000A51B9000B50216A0020294219D0616A6F
:101840000800A66A616A8142FAD18B4219D801D197
:10185000B24216D8CC4516D00C4B1F201D625D63DA
:1018600001230740BB400D4A1E38136043464A46D9
:101870001A70BFF35F8F0022054B1A608AF310883D
:10188000B5E70020F5E70120F3E7C046004005403A
:10189000280100D0A9B60120481B002080E200E00A
:1018A000EFF3108C72B60A490B68002BFCD0BFF323
:1018B0005F8F01238340074A0748136202789A43E7
:1018C0000270BFF35F8F00230B608CF310887047AA
:1018D000280100D000400540A9B6012030B5836042
:1018E0000023CCB243730133047342608373C47327
:1018F0000D000068012C06D9421C0133DBB21370C5
:1019000003329C42F9D1FF2129404B005918002392
:1019100040180338437030BDF8B5CE464746060040
:101920000C0080B5002907D04D0003686D18033DF9
:101930005A195778002F04D12000C0BCB946B046D0
:10194000F8BD7900C9190339884643445978894656
:1019500000215970517073683A00210080689847DF
:101960003368002827D1424641465D19AF709A1866
:101970005B5C002B00D06B7014703C00494630005B
:10198000FFF7CAFF051ED7D021002A00B068736890
:1019900098473168002818D06B005B196200033B40
:1019A0001219CB18033A9C7088188A5C002A00D060
:1019B0005A700570C0E742469A18947059195B5DD9
:1019C000002B00D053700F70D8E763001B196A001A
:1019D000033B5219CB18033A9D7088188A5C002A81
:1019E00000D05A7004702C00A6E7C046F8B54D0030
:1019F0006D180368033D0E00595D17000400FFF7E2
:101A00008BFF002F0CD12368002805D00021420055
:101A100012189A18033A917000225B195A70F8BD97
:101A2000E17B2368002904D04A0052189A18033A2F
:101A30005670A27B002A00D1A673E673E4E7C04685
:101A4000F8B5467B03687500AD19033D0F00595D7D
:101A50000400FFF761FF002F0ED12368002805D096
:101A60000021420012189A18033A917000225B1963
:101A70005A7060733000F8BDE17B2368002904D000
:101A80004A0052189A18033A5670A27B002A00D1D5
:101A9000A673E673E2E7C04670B50400002943D0A0
:101AA000437B8B4255D005684800401803382818FE
:101AB0008278002A38D053009B18033BEA5CEE186A
:101AC0008A4202D134E0002A08D053009B18033B1D
:101AD000EB185A788A42F6D142785A7000230122D4
:101AE000837043702000FFF781FF667B0500002EA6
:101AF00017D000281AD002003100A0686368984708
:101B00002168002817D06B005B197200033B921903
:101B1000CB18033A9E7088188A5C002A23D105707E
:101B200035000120657300E0002070BD3500F8E746
:101B300043783370D2E773009B196A00033B521954
:101B4000CB18033A9D7088188A5C002A08D1067069
:101B5000E7E701221900FFF749FF60730120E4E77E
:101B60005A700670DDE75A70D9E7C046F0B5DE4618
:101B70004E4657464546E0B583B001921A0E93464D
:101B80001E02050000238946300059460C9A01F0D8
:101B9000BFFC374B6C009C466419A4006444636826
:101BA0000700834200D260602B1FDBB29846012BF6
:101BB00038D9C02380229B01234312011A602D4B88
:101BC000AD0059599A46002923D1019A2368520140
:101BD0005340E0221A4080235B0123431A604246AF
:101BE000012A38D9802380229B01234312011A60E5
:101BF00030003A0000235946676001F089FC5346E3
:101C00005851012003B0F0BCBB46B246A946A046DD
:101C1000F0BD586901F03EFC431C5800C018033861
:101C2000FDD2D2E74B46012BC3D1C02303229B0137
:101C300023431A60023AA3681A42FCD0019A23682F
:101C400052015A40E0231A4080235B0123431A606B
:101C5000084AAD0092464A462168514003220A4094
:101C60001A6001224B469A40A3681A42FCD0B9E799
:101C700000800040D411002030B50C2083B000F06B
:101C8000C7F8FEF7F1FD00280BD02D482D4A0100C2
:101C90000300283104C38B42FCD12B4B436203B0B9
:101CA00030BD2A4CA06700F05BF90122284B1A6076
:101CB000636C012BFCD10322264B1A60234A936BE1
:101CC000012BFCD1013300930121234A2348043323
:101CD00000F04EF8052301210093214A214800F02D
:101CE00047F8214B214D174C00930022022104207C
:101CF000FFF73CFF2B000022012100950520FFF794
:101D000035FF23000022002100940720FFF72EFF5B
:101D100023000022002100940820FFF727FF0A4B30
:101D200000220093002123000920FFF71FFF2B0052
:101D30000022002100950620FFF718FFAFE7C046FC
:101D4000D4110020006CDC021BB7000000800040B2
:101D50003CB0004030B00040002F68590080024085
:101D6000008C864700C00240001BB7004059730733
:101D7000F8B5040021481D0017000E0001F08AFB91
:101D80000100380001F086FB069B29041B03194360
:101D90002368002B20DB1A4B1A4DE21853425A419C
:101DA00080235B019C461203174B62441A60174B59
:101DB0001A601700AB689F43FBD1C022231D92011C
:101DC0001A4321232660A06013602368002BFCDAED
:101DD0000823E1601360F8BD3F2322681340B3423B
:101DE000D9D1A3681B051B0D8342D4D1EE22E36831
:101DF000D20213408B42CED1EDE7C046001BB700A4
:101E00000040FDBF00C0004000E0004000F0004086
:101E10008023024A9B000343D36270470080054041
:101E2000024B1A68024B5A607047C0467416002075
:101E300000800540184B0200184810B5D86180207A
:101E4000174BC0051860174C1748046000290AD0CA
:101E5000E021164BC9041960002A09D18022134BD6
:101E600012061A6010BDE021C9041960002AF5D0DD
:101E700053019B1A98008023801800015B0498424C
:101E800000D30B4880220B4BD2051860024B5860E0
:101E9000064B1A60E6E7C046008005402131B76A6C
:101EA00000B00540FCFF01000820014000A00540F3
:101EB000FFFFFF007416002010B5140080221B4B9A
:101EC000D2051A6000281AD00123194A1843194B69
:101ED000DA61194A42401A62596298628022134BB1
:101EE000D2051A601549164A1160E022D2041A6020
:101EF000002C07D18022134B12061A6010BD0D4B27
:101F0000D861EBE763011B1B9A00802312191201B1
:101F10005B049A4200D30C4A0C4B1A60054B5A6082
:101F20008022084BD2051A60E8E7C04600B00540A1
:101F3000D3C007B0008005402D3FF84FFCFF0100E3
:101F40000820014000A00540FFFFFF00741600209C
:101F5000024B9868431E9841C0B27047008005400C
:101F6000AA23064A1B0113602F230549D360054BA2
:101F700019605368002BFCDA7047C04600400240ED
:101F800000B0FA00006002402B4B2C4A70B51A607A
:101F90002B4A2C4B2C491A6014008B689C43FBD1B4
:101FA0002A4D2B4EB54208D2013E761BB60808CD0D
:101FB000984723000134B342F9D1FFF75DFE254A6B
:101FC000204B1A60204A9368DB43DB01DD09002BBC
:101FD000F9D14022204B214C214E9A675A671A674B
:101FE000DA66B44208D223682000002B20D00C34DB
:101FF000FEF7C4FFB442F6D31A4E1B4CC022A168B0
:10200000300002F0B7F8A660FEF7A6FCFEF77AFFF4
:10201000FFF7AAF9154C164EB44208D2013E361B02
:10202000B60808CC98472B0001359E42F9D170BD07
:10203000FEF796FF0834D4E700E00040BFCDFBFE7A
:10204000FE7F3C0000F0004000C00040340B002048
:10205000440B0020FFFFFF0100F00140240B002093
:10206000340B00200000002000ED00E0440B0020B5
:10207000500B002000BEFDE710B5FFF7FBFFC04688
:102080000FB400B5084883B002F09AF9049B002B06
:1020900007D005A91800019101F082F9034802F068
:1020A0008FF90120FFF7E6FFB49D0010709B001030
:1020B00010B50148FFF7E4FFC49D001010B50148BA
:1020C000FFF7DEFFD49D00107047C046F8B55746B5
:1020D0004E464546DE46E0B599460A9B07009A46BD
:1020E0000D9B8846934615000B9E9B0710D10C9BB9
:1020F0009E420DD29D1B14000E005D4422004B46F3
:10210000013431002020B847A542F7D1B0460B9EDC
:10211000002E27D0444675195346AA1B013E985DF0
:1021200021004B46B847002EF6D123002C009846DC
:102130000D9B9B070FD55B46E51A0C9BAB420AD95A
:102140004646984622004B46310020200135B847CC
:1021500001344545F6D32000F0BCBB46B246A94643
:10216000A046F8BD2C00E3E7F0B54F464646D646FC
:10217000C0B584B098460EAB1B78129F9946944622
:102180000D9C109B119EBA0725D4002E4BD19C426A
:1021900000D3C1E001223A4092461F2C00D9BAE098
:1021A0000C9A551E302201E0202C03D001342A5510
:1021B000A342F9D85246002A0DD0A6420BD9202CB2
:1021C00044D00C9A551E302201E0202C3ED0013420
:1021D0002A55B442F9D1FA064ED57A053FD4002CDF
:1021E00039D10F9B102B00D17BE00F9B022B00D12C
:1021F0008CE030230C9A012413704B46002B40D006
:102200002D230C9A135501340C9B624600930397BF
:10221000434602960194FFF759FF04B0E0BCBA466A
:10222000B146A846F0BD012215003D40AA463A42FB
:1022300030D04A46002A02D10C323A4200D0013E48
:102240009C42BAD21F2CABD9202E28D92024FA06C2
:10225000DAD57A0503D4A3422ED0A6422CD00F9B08
:10226000102B34D00F9B022B20D0202CCCD030222E
:102270000C9B1B191A700134202CC5D04B46002B27
:10228000BED17B070DD43B07BED520230C9A135536
:102290000134B9E79C429ED21F2C00D880E720244D
:1022A00099E72B230C9A13550134ADE7202CABD0C2
:1022B0000C9B1B1901343BE0631E012C91D00F9A3B
:1022C000102A2BD00F9A022A2FD01C00CFE7BB0672
:1022D0000ED4202C98D00C9B1A190134782313703B
:1022E000C3E7BB060DD478230C9A01241370BEE714
:1022F000202C00D188E758220C9B1B191A7001343E
:10230000B3E758230C9A01241370B0E70C9A60339A
:1023100001241370ABE7202400265CE7023CBA06D8
:10232000E9D40C9A12191C00D8E70C9A924653442F
:1023300062221A7099E7C046F0B54E46DE4657460F
:102340004546E0B593B09B461CAB20CB89461B7835
:1023500092461E9E08900993002D08D11023219AC1
:1023600000249A431300219A2193520524D4219AE0
:102370006123920639D402AA94460A2252421F27A8
:102380009046DBB200246744984408E03033DBB267
:1023900001343B55B5420FD3202C0DD00500310040
:1023A000280001F077F8CBB20929EFD94344DBB21A
:1023B00001343B55B542EFD2219B52460693209BF8
:1023C000494605931F9B08980493099B0396029323
:1023D0000AAB009301945B46FFF7C6FE13B0F0BC56
:1023E000BB46B246A946A046F0BD4123C3E7C0465E
:1023F000F0B54E464546DE465746E0B595B09B469D
:1024000020AB1B781E9F0B93229B1F9D99463B0080
:102410008046239E09910A922B4308D1269A1033B5
:102420009A431300269A0024269352052CD4269A08
:102430006123920642D40A2252429246DBB2002421
:102440009A440EE01F21303204ABD2B201345B1843
:102450001A55AE4218D8AE4232D0202C14D0070004
:1024600065464A4633003800290001F051F8D2B2DF
:102470008C46092AE6D91F21524404ABD2B201345A
:102480005B181A55AE42E6D9269B40460693259B1B
:102490000A9A0593249B099904934B4603930B9B3B
:1024A000019402930CAB00935B46FFF75DFE15B001
:1024B000F0BCBB46B246A946A046F0BD4123BAE7F0
:1024C000B945CAD9E0E7C046F0B5DE4657464E46A4
:1024D0004546E0B591B09A461A9B8B4699461B9BA0
:1024E00007909846089243464A464846414601F0BE
:1024F0009AFA002800D0A5E0012248464146D74B71
:10250000524201F08BFA002800D09BE0012248469D
:102510004146D34B524201F06BFA002800D091E0C3
:10252000002200234846414601F062FA002800D00C
:102530008BE14E46474680231E9ADB001A400D92DF
:102540001E9A1A4201D106231C9333000A960B9758
:102550003B4300D08FE01E9B1B0500D563E10023A9
:10256000042409931D9B00259C4200D21D1B0223BD
:102570001E9A1A400C921E9A134203D06342634182
:102580005B421D40099B002B07D00A9A0B9B300031
:10259000390001F0CCF906000F0000220023484664
:1025A000414601F025FA002803D0802109067B1856
:1025B0001F001E9AAB4B009601971340079E049391
:1025C0001C9B089A03950293594653463000904647
:1025D00000F078F90500002C45D01E9B2A009806D3
:1025E0001F23C0179843594653466530B04705230B
:1025F00005930023099903930A330293CB0F0193A8
:10260000CB17C81858406F1C013C534600903A0045
:10261000594630000494FFF78FFE0C9B0500002BF9
:1026200021D04346C41A1D9BA3421CD937001E006B
:102630002A005346594620200134B8470135B44298
:10264000F6D310E01E9B4A4604931D9B5946039304
:102650001C9B079802934346009201935346089AA5
:1026600000F030F90500280011B0F0BCBB46B246BE
:10267000A946A046F0BD7C4B78009C46400D6044C6
:1026800001F0E4F9794A7A4B01F06FF9794A7A4B13
:1026900001F044F9794A3B031B0B1A4304000D0077
:1026A0000A981100764B002201F02FF9754A764BFB
:1026B00001F05BF902000B002000290001F02EF967
:1026C00001F0DCF9099001F0C1F9704A704B040087
:1026D0000D0001F04AF900226E4B01F01FF901F0E4
:1026E000CDF96D4A6D4B29000C90200001F03DF9A9
:1026F00004000C980D0001F0A9F9694A694B01F03A
:1027000034F902000B002000290001F0FEF802005D
:102710000B0004000D0001F028F922002B000A90A4
:102720000B912000290001F0F9F800220E900F9182
:102730000A980B995C4B01F0FAF800225B4B01F010
:10274000EDF802000B000A980B9901F0F0F8002256
:10275000574B01F0E3F802000B000A980B9901F0C7
:10276000E6F80A900B91802122002B000020C90579
:1027700001F0CBF802000B000A980B9901F0CEF89B
:1027800002000B000E980F9901F0D1F800223B4B8C
:1027900001F0C4F8474B0C9C9C466444230500227E
:1027A00001F0E3F832003B0004000D0001F036F9BF
:1027B00000282CD10A940B95C624099B63339C42B4
:1027C000A4411E9B644204341B0500D4CAE60A9A45
:1027D0000B9B1100194328D030003900364A374B83
:1027E00001F014F9002807D0002230003900344BE2
:1027F00001F0FEF8002818D11C9B002B00D1B1E697
:102800000D9B5A1E93411C9AD31A1C93AAE6099B4E
:102810000022013B099320002900244B01F087F896
:102820000A900B91C8E7002309931C9A099B9A42CE
:1028300011DDD01A431E1C9380231E9ADB001A431D
:10284000002300241E9209938CE680231B06434438
:102850004E461F006FE600231C93EDE7FFFFEF7F5E
:10286000FFFFEFFFFFF7FFFF01FCFFFFFB799F502A
:102870001344D33FB3C8608B288AC63F0000F03FA3
:102880000000F83F61436F63A787D23F71A37909C6
:102890004F930A400000E03F1655B5BBB16B0240B4
:1028A000EF39FAFE422EE63F00002C4000002440A3
:1028B00000001840FF0300002D431CEBE2361A3FD6
:1028C00080842E41F0B54E46DE4657464546E0B57B
:1028D00097B09946209E219F229B83469846079158
:1028E0000C923B0032003000390001F09CF80028C7
:1028F00000D0A9E1012230003900CA4B524201F058
:1029000077F8002800D0E1E0012230003900C64B02
:10291000524201F083F8002800D0B7E000223000D6
:102920003900C24B01F07AF8002800D099E000226B
:1029300030003900BE4B01F05BF8002800D090E079
:10294000002200233000390001F052F8002800D0A6
:10295000B1E000230D93249B5B0501D40623984628
:1029600008AB9C461722002430234146624404E011
:10297000013413550139202C01D00929F8D8884693
:102980003000390001F07AF84346DA00A94B05001F
:102990009B181A685B680892099301F057F80200C7
:1029A0000B003000390000F0B0FF089A099B00F0DE
:1029B000DCFF0A900B9101F085F8824601F042F8A5
:1029C00002000B000A980B9900F09FFF00229A4B1F
:1029D0000A900B9101F022F8002800D1C0E00123F9
:1029E0009C46E244504601F02DF802000B00089886
:1029F000099901F003F8002802D000239A46013516
:102A00004346002B6AD008AB17269C4608956644BF
:102A1000554614E001235B4243440A2128009A46AC
:102A200000F038FD013430313719397028000A219F
:102A300000F030FD092D00D8D0E0D0460500202C54
:102A4000E8D10EAB98460323249A1340012B00D102
:102A500096E02023249A01930392239A43460292FC
:102A60001EE0249B58460493239B009601970393F2
:102A700043460C9A029307994B46FFF725FD17B082
:102A8000F0BCBB46B246A946A046F0BD249B5B07FE
:102A90000ED40322694B2499019203912399029148
:102AA000009358464B460C9A0799FFF70FFBE6E751
:102AB0000422634BEFE73B0032000020002100F0CE
:102AC00024FF012306000F000D9344E7249B03938A
:102AD000239B0293042301935A4BE1E7280000F063
:102AE000B5FF02000B003000390000F00EFF524B22
:102AF000002206000F0000F07BFF0EAB9846002876
:102B00000AD10022300039004B4B00F087FF00282B
:102B100002D1EB0700D50135202C94D008AA9446A9
:102B20001723280063440A2101341E1900F08AFC8F
:102B30003031280031700A2100F084FC051EEBD1F1
:102B40000323249A1340012B1BD0202C00D180E7B3
:102B50000D9B002B35D02D224146631C0A5579E789
:102B600000220A980B99344B00F042FF002800D055
:102B700046E75346002B51D101239C46E2443FE7F0
:102B80002024239B002BE0D00D9B002B03D1249A03
:102B90000C33134202D0239B013B2393239BA3427C
:102BA000D3D908AB9C46172230236244202C00D195
:102BB0004FE72399013413558C42C6D0202CF8D10D
:102BC00047E7249B5B0724D4249A2300120700D4F0
:102BD00040E72022414601330A553BE75746089D0E
:102BE000202C00D12DE7220030214046002F09D0B3
:102BF0000132B154202A00D123E7D3431B191B18FB
:102C0000002BF5D10EAB98462E234146541C8B5415
:102C100082E72B224146631C0A551BE7DB0700D4E1
:102C2000EEE6A9E7FFFFEFFFFFFFEF7F65CDCD41A8
:102C300065CDCDC1D89F00100000E03FE09D0010A1
:102C4000E49D0010F09D0010249B0393239B0293AE
:102C500003230193004B23E7EC9D001010B50028DF
:102C600000D110BD01F09EFBFBE7C0460B0010B584
:102C7000002802D049681B68984710BDF0B5574638
:102C8000DE464E464546E0B595B01C001E9B91467B
:102C90009B46C84AC84B82460F1E1A6000D1CFE13E
:102CA000002320789846002800D1D1E11E005B4621
:102CB0000B9309E032004B463900751CD0472E00BB
:102CC0000134207800284AD02528F3D110239B46D0
:102CD0000C3B9846023B00229C460134207825009C
:102CE0000300203BDBB2102B03D8B4499B00CB5828
:102CF0009F460300303B092B55D9002398462A28CC
:102D000064D000242E283FD00300683BDBB2122B96
:102D100008D8AB499B00CB589F4680235B0068785E
:102D20001A4301350300253BDBB2532B57D8A54985
:102D30009B00CB589F46012301341A43CEE76346DC
:102D400001341A43CAE7434601341A43C6E75B46D7
:102D500001341A43C2E7082301341A43BEE7B046E0
:102D60003400C14503D801235B424B4498464B468F
:102D7000424639000020D047200015B0F0BCBB46C9
:102D8000B246A946A046F0BD687880230100DB006A
:102D900030391A436B1C092900D85BE12A2800D17D
:102DA00068E11D00B0E70023984603004146880013
:102DB000401801354000C0182B7801001800303849
:102DC00030390928F3D9180088469AE70B9B02CBC3
:102DD000884600290CDB60780B93651C91E7731C17
:102DE000984632004B463900D04746466C1C68E78F
:102DF00002210A4341464942884660780B93651C8C
:102E00007FE7782800D16DE1582800D197E16F283D
:102E100000D158E2622800D18CE2102311009943BE
:102E20000B00692800D0A6E2520500D533E20A2241
:102E30000C929A0500D5FEE1DA0500D55FE25A064C
:102E400000D52BE20B9A11001A0600D481E204C9C6
:102E50008C4612B2D11750184840614680B20B918F
:102E60000593434604930C9BD20F03940293019263
:102E7000009032004B4639005046FFF75DFA6C1C5B
:102E800006001EE780239B0068781A43013549E756
:102E90006878682800D15EE1802301351A4341E754
:102EA00068786C2800D15BE180235B001A43013510
:102EB00038E7462800D112E107210B9B0492073323
:102EC00042468B431900029403920CC9504600926B
:102ED00001930B9132004B463900FFF7F3FC6C1C59
:102EE0000600EEE60B9B02CB0B910D93002C00D05D
:102EF000C9E00B789C46002B00D133E202235B42F1
:102F00000B990133C8180B0002E0984200D12DE163
:102F1000597801330029F8D10B995B1A0C9380235F
:102F20001100DB0019400E911A4203D00C9BA34202
:102F300000D90C940223190011400F91134200D1C3
:102F400054E16046002800D13BE10B9B32009E1B00
:102F50004346AB46B8460E9D57460B93B2462600F5
:102F600000E02200002D04D0731E002E00D101E1EC
:102F70001E004B464146541CB8475346185D002876
:102F8000EFD10B9B5D46BA46A346474698460F9B3A
:102F9000002B00D014E10D9B5E466C1C0B9390E659
:102FA000731C984632004B4639002520D0474646D0
:102FB0006C1C86E67D2C001070160020F89D001019
:102FC0003C9E0010889E00100B9B03949846212382
:102FD0001A43193B04930833029300230592424697
:102FE000019308CA39009046009332004B46504680
:102FF000FFF7A2F9434606006C1C0B9361E69307AA
:1030000000D4BEE00B9B320001CB39009B46C0B21E
:103010004B46D0474346741C4644012B00D84DE133
:10302000A846554622004B46013439002020A847C7
:10303000B442F7D1AA465B4645460B936C1C40E66A
:10304000CE4B20789A4600239846002800D02DE6E3
:10305000002486E60100A00000190133400040185A
:10306000197830380400080030380928F3D90800EE
:103070001D0049E60B9BA87810CB0235E143C91728
:103080000C400B9340E60B9B1B789C46002B00D119
:1030900067E1631E34E7202301009943472904D1E7
:1030A00080231B011A4302239843452801D1202382
:1030B0001A4307210B9B0492073342468B431900A6
:1030C000029403920CC95046009201930B91320076
:1030D0004B463900FFF7F8F96C1C0600F1E5202398
:1030E0001A43E9E610230C930C23110099430B00BB
:1030F00052052DD4692800D19BE6642800D198E6BA
:103100008022180092001040134200D0E6E0DA0559
:1031100000D512E10B985A0600D5C8E01A0600D473
:1031200022E104C81204120C0B9005934346049349
:103130000C9B0394029300230092019399E60C23C5
:103140001100994314330B4310210C915205D7D52C
:1031500001229343CEE7C023A8781A430235E1E564
:10316000C0239B00A8781A430235DBE50B9BC31AEA
:103170000C93D4E60B9B5D46BA4693464746984669
:1031800005E74346012B00D8F3E0741E4444A846EB
:10319000554632004B46013639002020A847A6424A
:1031A000F7D1AA4645460B9B220001CB3900984631
:1031B000C0B24B46D0474346661C0B936C1C80E55F
:1031C0005E460C9A904534D943469B199B1AA846F3
:1031D0001C00554632004B46013639002020A847D6
:1031E000A642F7D1AA46A3464546D4E60C9A531CFC
:1031F000904500D8BBE043469B199B1A9B4653461B
:10320000A2465C46AB461D0032004B4601363900F3
:103210002020A847A642F7D1434601330C930B9BCD
:1032200054461B78AA469C465D466046002800D05E
:103230008BE6B346AFE6082107208C460B9A07328F
:103240008243944405CA0893434607930C9B614606
:10325000049300230593D30F0293D3171093119374
:103260000B910694109B119C190041401291210072
:10327000514013911299139AC91AA24113000A00DE
:1032800000920193390032004B465046FFF7B0F8E8
:103290006C1C060015E50A220C9259E70B9A01CA2C
:1032A0009446FF226146024010000B91D8E504C805
:1032B0009446FF2261460B900A4036E75B462600A3
:1032C0000B936C1CFDE408230C9313001A00642874
:1032D00000D009E75A0500D4ABE539E70893434627
:1032E00007200B9A07930C9B073282430493002319
:1032F00011000694059302930CC90B91C0E70B9A39
:10330000110004C9059343468B4604930C9B039418
:103310000293D30F0193D317D2185A4000924B4611
:10332000320039005046FFF707F85B4606000B9362
:103330006C1CC6E402230C93C7E705934346049331
:103340000C9B0B9A03940293019008CA9346009336
:10335000E5E704C98C46D1175018484061460B91E7
:103360007EE500230C93DAE504C80B90DDE60C93B0
:103370005BE7340017E70A220C92A7E7C920001088
:1033800000B585B00391012102900093034813001A
:103390004A4202A9FFF772FC05B000BD6D2C001077
:1033A00010B5094A0300146884B0002C08D001222B
:1033B00000910648524203A9A047012004B010BD65
:1033C00000F0FEFF0020F9E7701600205D2C0010D1
:1033D00001480421014B1847C00A002001340010A5
:1033E000142310B50100188804331B88984710BDBA
:1033F000162310B50100188802331B88984710BDAA
:10340000F8B54746CE4680B50F1E19D0142399460D
:10341000043304000025012698464B46188843468D
:1034200021681B88984701C4431E984101354042DA
:103430000640AF42F1D13000C0BCB946B046F8BD3D
:103440000126F8E7124A936F9B0815D29066D16661
:10345000002905D0FFE7FFE7FFE7516F106F7047C6
:1034600004B580210906C2175140002800D0C84386
:1034700006F0FAF8002104BDF0B5146E556E576FD2
:10348000166FFFF7E3FF1466556657671667F0BDC2
:10349000000000D0114A936F9B0813D2106651664A
:1034A000002905D0FFE7FFE7FFE7516F106F704776
:1034B00004B5002801D00020C04306F0D5F8002153
:1034C00004BDC046F0B5146E556E576F166FFFF70A
:1034D000E5FF1466556657671667F0BD000000D01B
:1034E00094464A4A926F9208624601D228E0C0464A
:1034F000F0B5464E346E756E776F366F00F020F87B
:103500009446424A14665566576716676246F0BD90
:1035100094463E4A926F9208624601D254E0C046F9
:10352000F0B53A4E346E756E776F366F00F04CF82A
:103530009446364A14665566576716676246F0BD6C
:10354000002B24DB11D000293EDA00B5C9434042EC
:1035500000D1013100F038F8C943404200D10131B7
:10356000DB43524200D1013300BD002AEBD10028D9
:1035700001D1002905D00020C90FC90701D1C043DE
:10358000410800B506F060F80022002300BD00B538
:1035900000290ADBDB43524200D1013300F014F86A
:1035A000C943404200D1013100BDC943404200D16E
:1035B0000131DB43524200D1013300F005F8DB4317
:1035C000524200D1013300BD002923D1002B18D174
:1035D000002A0CD0BC460D4F38667A6600210023C5
:1035E000FFE7FFE7FFE77A6F386F6746704700280D
:1035F00001D00748010000B506F026F8002200239C
:1036000000BD02000B00002000217047000000D028
:10361000FFFFFFFF002B00D0BFE0130C28D1002AD2
:10362000E7D080B4114F39667A66FFE7FFE730B420
:10363000040C7B6F396F1B0423433B667A66FFE7FC
:10364000FFE7FFE7C04684B27B6F3D6F1B04234357
:103650003B667A66FFE7FFE7C04600232C042D0C8B
:103660007A6F386F00196941B0BC7047000000D014
:10367000F0B594460025140E01D112020835140F3E
:1036800001D112010435940F01D192000235D40FFB
:1036900001D152000135D40B0134254F7C66254CF5
:1036A0003C660E0C93B2FFE7FFE7FFE73C6F664313
:1036B000360C7703BE467343DF0B5B04C01AB94177
:1036C000130C7343DB18C91ACE086643360CB64494
:1036D00093B273431F0F1B01C01AB941130C7343FC
:1036E0001F0B1B05C01AB941860D8F023E4366436E
:1036F000360C092D24DB520A7243801A7703460ADE
:103700006643360C16235B1BDE40DF40BF19644660
:103710006643821B7046043506330100D940A84039
:10372000C01900D30131A24206D20023F0BD00002F
:10373000000000D0FFFFFFFF121B0130F3D3F1E7C1
:1037400009277F1BFE406446A2B27243801A00D252
:103750000139220C7243130C1204821A99410B0096
:103760007046043513370100F940A840801900D392
:103770000131002B02D1A2420AD2F0BD013000D3A8
:103780000131121BFAD2013BF8D1A24200D2F0BDA6
:10379000013000D30131121BF7E7F0B51C0C00D04B
:1037A00080E00CB400251C0A04D11B02160E334322
:1037B000120208351C0B04D11B01160F33431201F2
:1037C00004359C0B04D19B00960F334392000235C5
:1037D000DC0B02D192185B4101351C009718644143
:1037E0000134464F7C66464C3C660E0CFFE7FFE713
:1037F000FFE7C0463C6F6643360C7703BE4697B280
:103800007743C01B00D20139C01B00D201399FB2DF
:103810007743C91BC91B170C77437E04FF0B801B22
:10382000B941CE086643360C0C2D33DBB644120B7F
:103830001F053A431B0B97B27743C01B00D20139D7
:103840009FB27743C91B170C77433E043F0C801B84
:10385000B941860D8F023E43664329277F1BFE40F8
:103860000C3D7746AF40BF1930BCA2B2ABB2724339
:103870007343801A9941220C7243130C1204801A6C
:10388000994102000B000137001BA941F9D2781EB3
:103890000021F0BD0C277F1BFE4077467F0BAF4019
:1038A000FF19E0E700245D1C07D0144F7D663966E0
:1038B000FFE7FFE7FFE7FFE73C6F95B29EB2654386
:1038C0006643401BB141150C1E0C6543664336042C
:1038D0002F0C3E432D04401BB141994204D20200FB
:1038E0000B0020000021F0BD01D19042F7D3801AD7
:1038F000994101349942F2D3F6E70000000000D06C
:10390000FFFFFFFF48404140484018B41B4B5B6835
:10391000FC46019308BD04DF6F3B001018B4174B41
:103920001B68FC46019308BD00DF793B00109446FC
:10393000134A926F920809D2624618B40F4BDB68A3
:10394000FC46019308BD0CDF313E00100C4AF0B577
:10395000146E556E576F166F6246FFF7EEFF084AFA
:103960001466556657671667F0BD18B4034B9B681D
:10397000FC46019308BD08DFD53C00103819002033
:10398000000000D0FFB550404240504059404B40ED
:10399000594000E0FFB5154F4C00640D03D0BC4208
:1039A00004D10C0314D80020090D09055C00640D36
:1039B00003D0BC4204D11C030AD800221B0D1B05F6
:1039C00001264B4009D44B4003D58B4200D18242A3
:1039D000FFBD9942FCD19042FFBD0B43DB1803436E
:1039E0001343F5D0C9434918FFBD0000FF0700008D
:1039F00000B5FFF7CFFF804100BDC04600B5FFF71F
:103A0000C9FF01D9002000BD012000BD00B5FFF7AE
:103A1000B9FF01D9002000BD012000BD00B5FFF7AE
:103A2000B1FF804100BD012040054A00121804D8B2
:103A30005A00121801D8002070470120704700205A
:103A4000704700000021002805D17047C117484089
:103A5000401AFAD0C90713B5064B1B6898470CBC2F
:103A6000441CA2401005120B0349091B0905194308
:103A7000114310BD381A00201F04000010B54C007F
:103A8000620D8023D218DB00D21A5B057E2A10DD7E
:103A90009E3A13DACC170903490819435242D14020
:103AA000640001341532202A05DAD040084360430F
:103AB00010BD002010BD0846604310BDC80FC018DF
:103AC000013810BD18B4044B5B6AFC46019308BD75
:103AD00024DFE13F0010000038190020132370B5E7
:103AE0001C78012C15D010DD0F48FFF781FC0F4D1D
:103AF00001008022280000F03DFB022C06D00C487B
:103B0000FFF76EFC0B4B186070BD084D0A4AAA64A3
:103B1000F5E7064D084A29002B00803104C38B428B
:103B2000FCD1AA64EBE7C0465344000038190020DA
:103B30004C330000381A00203D3B001007B56046AA
:103B400001880A0A0230DF2AFAD1C9B2820804D3F6
:103B5000028840880004104300E00068014A505089
:103B6000039007BD381900200FB403BC0CBCF0B59E
:103B70000124E407634000E0F0B50C0DCF0F661E92
:103B80003605891B640503D3C943404200D3013184
:103B9000640D03D0661CF60A07D0E41B00207F00EA
:103BA000791C89078912803C24031D0DDF0F6E1ECE
:103BB00036059B1B6D0503D3DB43524200D3013313
:103BC0006D0D03D06E1CF60A07D0ED1B00227F009E
:103BD0007B1C9B079B12803D2D032F1B661B58D41B
:103BE000A446202E46DA20371400BC401D00BD40FC
:103BF000F24033412A4380185941CB0F05D0C943C5
:103C0000C043002264425041514162464D0D28D1CB
:103C10000D0D07D100281FD0241940414941013A18
:103C20000D0DF9D0640006D3013000D30131002C12
:103C300001D140084000013A0BD4941CE40A04D19D
:103C400012051144DB071944F0BDD907204B194375
:103C500000E0D9070020F0BD0029DDD1002CDBD128
:103C6000F0BD0132C6074008CD0728434908002EA1
:103C7000E1D0D9E73C2E29DA203E40371400BC4081
:103C800000D00124F24014431A00BB401C43D31758
:103C9000ACE7AC46202F08DA20360400B4400D0013
:103CA000B540F84039412843A5E73C2F0CDA203FC6
:103CB00040360400B44000D00124F840044308001A
:103CC000B1400C43C117EAE710001900002494E743
:103CD0000000F07FF0B50C0D661E3605891BE60A64
:103CE0006405640D02D0651CED0A04D0002001219A
:103CF0000905803C2403A4461C0D671E3F05DB1B01
:103D0000E70A6405640D02D0651CED0A04D00022A8
:103D100001231B05803C24037740644497B484B29C
:103D200096B27443070C7E43150C6F4380B2684310
:103D3000361802D3012000043F183004350C001956
:103D40007D41844688B29AB250430C0C62431F0CEA
:103D50007C438EB27E43921902D301263604A41905
:103D60001604170C3618674101BC81B29AB2514350
:103D7000040C62431B0C5C4380B25843121802D3FC
:103D80000120000424181004130C401863412D185E
:103D90005E410020474106BC88B293B258430C0CE8
:103DA0006343120C544389B251435B1802D301217F
:103DB0000904641819041A0C091862416D18564157
:103DC0000020474118BCF902720D1143F0026A0D40
:103DD0001043ED020A0D03D16D1940414941013BE9
:103DE000124E9B1B7600B3420ED26D0007D30130FA
:103DF000002671416646354301D1400840001B054D
:103E0000C918E4072144F0BD0BDA013306D10130B3
:103E100004D101314F0D01D04908F2E7E10700203C
:103E2000F0BD013631050020EBE70000FF03000084
:103E3000F0B51C0D671E3F05DB1BE70A6405640D2A
:103E400002D0661CF60A04D0002201231B05803C28
:103E50002403D0252D060026F6432E661E096E6625
:103E6000CE0FF619B44649004F0D02D07E1CF60A5B
:103E700003D000200021403F3F033E1BB600B44466
:103E8000013F7F05C91B49082E6F013676089C0249
:103E9000950D25437543ED137543AD1301356D1035
:103EA000F603761B0CB4CC02450D2C43A2B2B3B280
:103EB0005A43270C7B43350C6F43A4B26C431B1948
:103EC00002D3012424043F191C041D0CA4187D41B5
:103ED00024196D41009A91B2ACB26143170C7C4336
:103EE0002B0C5F4392B25A43A41802D3012212044E
:103EF000BF182204230C52187B41019C6C431B19F0
:103F0000520ED9010A434401A01A81B2B2B2514300
:103F100003145A43360C734387B27743D617D2192A
:103F200000277E4136049B191704160C7F185E414A
:103F30007316ED18F301002680337541A90F06D1E1
:103F40006400690AE8055B0A184309D22FE00422DD
:103F5000944480337541A90AA8059B0A184326D3C7
:103F6000404149412404009A019B0D005543641BC4
:103F70004343E41A95B286B27543170C7E43030C93
:103F80005F4392B25A43B61802D301221204BF18FB
:103F90003204330C52197B4152429C41002C02D412
:103FA0000022013051414008CA071043490802B0BD
:103FB0006246D7079210084BD218084B9A4203D298
:103FC00012058918C919F0BD0020002A01DC39004A
:103FD000F0BD01331905F5E7FD030000FE07000001
:103FE000002200B5203200F004F8080000BD0000F7
:103FF00000220B150AD410B5944600F031F81414C1
:10400000013400DA0021CB17144C20470020002196
:1040100070476244343A0CD40C2A07DA0400914009
:10402000904052422032D440214310BDD843D9435E
:1040300010BD203207D40C46944052422032114128
:10404000D040204310BD0800C917203203D452428B
:104050002032104110BD1800190010BD134000108F
:104060000A0DCC0F531E1B05C91A520503D3C943B1
:10407000404200D30131520D03D0531CDB0A07D05C
:10408000121B00206400611C89078912803A120308
:10409000014BD21A70470000FF0300005143434315
:1040A000C9188C46110C83B24B4310B4040C614305
:1040B00092B280B2504362431C041B0C001910BC26
:1040C00059411304120CC01851416144704700005B
:1040D000132310B510481C78FFF78AF90100012C52
:1040E0000AD003DD80220D4800F044F80C48FFF7A9
:1040F00077F90C4B186010BD084C5422200000F0DA
:1041000039F823002100084A5433803104C38B421C
:10411000FCD12262E261E9E7534600003C1A00202C
:104120004C330000381A00202D41001007B56046BE
:1041300001880A0A0230DF2AFAD1C9B2820804D300
:10414000028840880004104300E00068014A505093
:10415000039007BD3C1A002001480421014B184779
:10416000D00A002001340010014B1B6818470000E2
:10417000D00A0020014B5B6818470000D00A0020DD
:10418000030010B5080011001B68984710BDC04619
:10419000F0B546464F46D6468046C0B50E00171EBF
:1041A0003FDD4B1E9946214B0125002400209A46F5
:1041B0000DE04B461B5D0D3B5A425341325DDBB275
:1041C0000A2A0BD02B00013401359F421ADD002C46
:1041D000EFD14346325D1B7D0A2AF3D1002BF1D18A
:1041E000A04204DA4346211A1B6830189847434618
:1041F00050461B6802219847013428002B000135E6
:104200009F42E4DC874204DD4346391A1B683018BC
:104210009847F619013E33780D3B5A4253414246C6
:104220001375E0BCBA46B146A846F0BD80A00010A8
:1042300010B50B00417D002903D01900FFF7A8FF3E
:1042400010BD046811001800A047F9E7F0B5C64694
:10425000144B06001C6800B5002C19D0031D9846AD
:10426000114F02E02469002C12D02568002DF9D0EE
:104270003B68002B01D0A342F4D1637D3268002B50
:104280000BD020004146FFF783FF2469002CECD1BE
:104290000023336080BCB846F0BD11004046A847FB
:1042A000E0E7C046641200206C12002070B50C00DC
:1042B00009680500802904D04B1C2360641825710F
:1042C00070BD2000FFF7C2FF2168F5E7F0B5DE46BC
:1042D00057464E464546E0B585B017001C0006001F
:1042E0000D00FDF713FA0023274A12184B41002B4B
:1042F00045DB264908008A4605F0CEF901906B1C83
:1043000003D1300005F056F90500002C30D1204BC8
:104310009946204B1C68002C20D01F4B98460A233E
:104320009B4602E02469002C18D02368002BF9D0AA
:1043300043461B68002B01D0A342F3D12A00310071
:104340002000C847002FEDD05A4602AB2000DA719A
:10435000D91D0122C8472469002CE6D1019B002BFE
:1043600009D105B0F0BCBB46B246A946A046F0BD97
:104370000A4B9946CDE7504605F05EF9F1E7012278
:10438000074B5242B5E7C04640420F002C0B0020BD
:1043900031420010641200206C1200208141001094
:1043A000FFFFFF7F10B582B06B4604000022D81DCE
:1043B000012100230470FFF789FF200002B010BD27
:1043C00070B5040005F0F6F8002301000500012295
:1043D0002000FFF77BFF064B1C68002C06D06368AB
:1043E000002B00D098472469002CF8D1280070BD1C
:1043F000641200200A4A1368002B05D10CE01A0051
:104400001B691032002B07D09842F8D1002902D145
:1044100003691360016170470029FCD01060FAE75E
:1044200064120020F0B5A3B004000D00FDF76EF992
:104430000023184A12184B41002B27DB164E300080
:1044400005F02AF900230700019322002B001348EE
:1044500001A9FEF795FF019B0500002B02D001A8E2
:10446000FFF7F4FE0E4B1C68002C06D06368002B8F
:1044700000D098472469002CF8D1002F02D12800E1
:1044800023B0F0BD300005F0D7F8F8E70122054B66
:104490005242D3E740420F002C0B0020AD420010E7
:1044A00064120020FFFFFF7F0FB400B583B004A9A2
:1044B00001C90191FFF7B6FF03B008BC04B018476B
:1044C00010B500F0D9F910BD7047C0460022014B6D
:1044D0001A707047A6B601204B790020FF2B0BD134
:1044E0008B79002B08D1CB79012B05D1082A03D970
:1044F0008A78024B09301A707047C046A6B6012070
:104500000120704770B5012909D1154953791079F7
:1045100009781B0203430020994202D070BD01209C
:10452000FCE75378012B08D0022BF7D1002064223E
:104530000021FDF7C1FC0120F0E79478D278050056
:1045400012021443D20502D5620A93401D000548A9
:10455000FEF746FF7F210300214028009847C04610
:10456000A6B60120554200000123037000487047A1
:1045700084A0001048780B788A780002184312044F
:1045800010439622CB7810B51B060343D20093420A
:1045900000D010BD0348FEF723FF002103000800F0
:1045A0009847C04655420000024B1860024B196004
:1045B0007047C046C8110020CC11002010B5024B36
:1045C0001878FCF71DFA10BDA7B6012070B50400DD
:1045D00000200E0001F034FA002835D0002001F050
:1045E00047FA002830D0FDF791F80023184A121836
:1045F0004B41002B24DB174D280005F04DF8002817
:1046000022D0002001F01CFA00280BD1012000214B
:104610000324404200F08EFC6442280005F00CF8B0
:10462000200070BD002001F023FA0028EED0210008
:104630003200002001F028FA041EEED1033CECE722
:104640000122054B5242D6E703246442E8E7C04604
:1046500040420F00401B0020FFFFFF7FF8B5DE4601
:10466000574680B505000C00FDF750F80023364A88
:1046700012184B41002B5ADB344908008A4605F0DA
:104680000BF8002803D1C0BCBB46B246F8BD0020E1
:1046900001F0D6F900284ED00026002C43DD2C4B2B
:1046A0009B4614E0A919002001F03EFA0700012002
:1046B0000021404200F03EFC002001F0F9F9FDF736
:1046C00025F8234BF61918605960B4422BDD002001
:1046D00001F044FAA71B0200B84200DD3A00002AAC
:1046E000E0D101200021404200F024FC002001F034
:1046F000DFF9002001F0A4F9002814D0002001F017
:104700002DFA0028E1D1FDF701F85B460F001A6889
:104710005B68002184460F4812184B419F4202D823
:10472000D3D19445D1D9504604F086FFABE701229E
:10473000094B5242A0E700200021054B1860596048
:10474000504604F079FF9EE740420F00401B0020D6
:10475000500C002020A10700FFFFFF7F114B70B518
:104760001A68002A1AD0EFF3108172B61068002878
:10477000FCD0BFF35F8F00220B48596002701B68AA
:10478000BFF35F8F1A6081F3108800240025074B68
:104790001878FCF735F92900200070BDFA240025AF
:1047A000A400F4E77C160020A8B60120A7B60120DB
:1047B00010B5244C84B00021200004F05DFF0028D7
:1047C0001CD1214B1A68002A16D0EFF3108172B663
:1047D00010680028FCD0BFF35F8F01241B4859608C
:1047E00002781B68D2B20470BFF35F8F002018609C
:1047F00081F31088002A0AD004B010BD01200021E6
:10480000404200F097FB200004F016FFF4E7FCF7AD
:10481000E1FD0400FCF77AFFFA220023920012184F
:104820004B41002B09DB0121029100210191084934
:1048300020000091FCF7D2FDDEE70122054B524239
:10484000F1E7C046401B00207C160020A8B60120DE
:104850005D470010FFFFFF7F054B10B5186800286B
:1048600004D0044B0022196800F042FF10BDC0467E
:10487000C8110020CC110020D02310B51B0684B035
:104880001C68FCF7A7FDFCF721FEA04202D0002027
:1048900004B010BD264B1B7801F00AFB2548FCF73D
:1048A0005FFB0120FCF740FBFF23234C23492070D2
:1048B0001840FCF7CBF820780121FCF783F805209D
:1048C000FCF7A6F8002822D1FCF784FD0400FCF7D1
:1048D0001DFFFA220023920012184B41002B22DB0D
:1048E0000121029100210191154920000091FCF75E
:1048F00075FD0822040000211248FFF735FC002C4A
:10490000C5DB11480121FFF775FD0120C0E700223A
:104910000E490520FCF7C4F8FCF72CF80100094803
:10492000FCF74CFBEDE70122094B5242D8E7C046A9
:10493000C8A20010401B0020A7B60120B1470010FC
:104940005D4700107C160020E00A0020BD450010E5
:10495000FFFFFF7F004870473CA1001000487047F0
:10496000E8A0001070B5040017480378002B21D090
:10497000002C06D1C1241548154BA40043800480A7
:1049800070BD052C1DD8134B1048A400E558811CA0
:10499000002304E001330A800231132B0ED0EA5CBD
:1049A000DCB2002AF6D1C0230134E4B264009B00DB
:1049B0001C43E4E7112100F017F8D9E7CA24A4004A
:1049C000DDE70020DCE7C046009C01203C1200200F
:1049D0000904000050A1001010B5024800F026F8AC
:1049E00010BDC04630190020F0B54C1E012916D06C
:1049F000002301260F250C4F5A08BA5C1E4200D135
:104A000012112A4011003731092A01DC303211001D
:104A1000C1540133A34205D0102BEDD11030002337
:104A20000370F0BDC018FAE73019002030B500253A
:104A300089B004000922002101A80095FFF794FB2A
:104A40000922002105A80495FFF78EFB4B236A4637
:104A50006846137004A90D2204F0E6FD1521082212
:104A600020006944FFF786FB09B030BD10B5012175
:104A70000520FBF7A7FF10BD10B50022002102485A
:104A800000F05AF910BDC046901200208022024B5F
:104A90005202DA647047C04600201150F0B5C64695
:104AA00000B5060000F022F90C231B4DFF22AB6776
:104AB00005201A49FBF7F4FF40239846184C402282
:104AC00000212000FFF750FB4346012723832121CB
:104AD0000023144A6770A260136063545F316184DD
:104AE00041462187053963540F4A10496360E260EB
:104AF000A1620B606362E26204F0AEFD80239B055D
:104B00002F64EB6490230A4A3000EA50FFF7BEFF9F
:104B100080BCB846F0BDC0460000115039040020EA
:104B200070120020840010500001105080001050BE
:104B300010D001000B785B0602D14B78052B00D01A
:104B400070478A78014B1A60FAE7C046000011509E
:104B5000F0B5C64600B54B790C791B028878234323
:104B6000CC787F21A4070140C509A20F4F00140093
:104B7000324E7A195201B21890700120684050707C
:104B800000205B055B0DD0701383D4768046CA008D
:104B9000012D33D02A488446880162448446B444B7
:104BA0006046826040461060002933D0254AC90023
:104BB00090466246414451603F223F339343022C6A
:104BC00000D15B0020487A1901685201B218D16007
:104BD0001E4ACB1803605140534080228846520140
:104BE000934228D84346A4061C4380237F197F01A3
:104BF0001B06F6191C4373681C6011E014488446B8
:104C0000880162448446B444604682624046106033
:104C1000002909D100236D01761973600D4BF360F3
:104C2000012080BCB846F0BD084AC90090466246E3
:104C300041445162C0E7FDF741FAD3E7701200200A
:104C4000840010500400105078160020000010500E
:104C5000800010500001105010B504F0FDFC10BD94
:104C600010B57F200C0020404000E409110000191D
:104C70001A00034B4001C01800F05EF8012010BD7F
:104C8000701200207F22130010B50B400A420BD097
:104C9000C9098022580040180649400140181201F5
:104CA000002104F019FD10BD02220348C909521A5F
:104CB0008266EEE770120020002011507F22100063
:104CC00010B508400A4200D110BD0023C9094000B8
:104CD000401804494001081800220349C37004F039
:104CE000FBFCF1E770120020FFF7FFFF80220D4B65
:104CF000520410B51A600C4B0C491A6010008B68F6
:104D00009843FBD10A4C9C2200212000FFF72CFA8B
:104D10008022002152010748FFF726FA0923636722
:104D200010BDC04600E0004000F0004000C0004060
:104D3000000011500000105070B5837E04000D007B
:104D40001600002B17D10023E38201332000A68236
:104D5000A376256104F060FC002804D08021902314
:104D6000084A8902D150200004F0AEFC002805D08A
:104D70000123237770BD04F09FFCE4E7200004F0DA
:104D800093FCF7E700201150F8B54746CE461E4A7F
:104D9000050090461D4A0024914680B51C4E1D4FCB
:104DA0003378002F22D09C4222D3E31ADBB2002BAF
:104DB00018D143462800984701343378E4B2A3421F
:104DC000EFD2154C532200212000FFF7CDF910221D
:104DD000FF21E01CFFF7C8F920002022FF2113303B
:104DE000FFF7C2F9C0BCB946B046F8BD2300DEE704
:104DF0004A461268630094461B19DB006344002B8B
:104E0000F0D05B68D6E7C046F15B0010740C002060
:104E1000A0B60120694500109C0F0020024B587875
:104E2000431E9841C0B270479C0F0020024B187877
:104E30004007C00F7047C0469C0F0020034B1878F6
:104E4000FF38431E9841C0B27047C0461C0B00207B
:104E5000F0B54646D6464F46C0B52C4E05003378D1
:104E60000120FF2B04D0E0BCBA46B146A846F0BDF5
:104E7000532200212648FFF777F9264C2000FCF743
:104E80006FF8254B1C60254C20001430FCF786F889
:104E9000200001F043FC224B224F1C60224B98461D
:104EA000002F04D01800FFF75FFB204B1860204A4A
:104EB000434691461D4A002492461B78002F18D085
:104EC000A34218D8E31ADBB2002B10D14B46984707
:104ED000434601341B78E4B2A342EFD22800357078
:104EE000FFF7DCFD2800FFF7C1FD0120BBE7002034
:104EF000B9E72300E8E752461268630094461B199D
:104F0000DB006344002BF2D01B68E0E71C0B0020A1
:104F10009C0F0020540F0020F00F0020000B0020F9
:104F2000F40F002069450010A0B60120740C002089
:104F3000755B0010F0B5DE4657464E464546E0B577
:104F40008FB000F0BBFF002800D1BBE0C44BC54DC3
:104F5000994618239A46053B9B46C34E0BACAB447F
:104F600037687A69EFF3108172B61368002BFCD0B2
:104F7000BFF35F8FB9613800210001F02BFB7A6924
:104F8000BB69BFF35F8F0021116083F31088002895
:104F900000D197E06378082BE2D84A469B00D358AB
:104FA0009F466368002BDBD0A0689847D8E77F2234
:104FB0002179AC4B0A405700DB199846C809804458
:104FC000404601233030C7789F43C770C77803330A
:104FD0009F43C770002A00D17BE04346A348DB7C97
:104FE000002806D0A24A1278934200D2D1E09B1A40
:104FF000DBB2002B66D19F4F62792078A368B84757
:10500000AEE701222B78012013432B7033230421B8
:10501000EA5C27788243EA54EA5C8A43EA54013323
:10502000EA5C8243EA54EA5C00208A43EA5400F0D6
:105030006FFC602223791A40602A0AD0402A4ED0A1
:10504000DB06DB0E012B00D1ADE0022B61D0002B83
:1050500053D020780021FFF715FE80212078FFF73C
:1050600011FE7DE77F4B1B78DB0700D478E7824B8E
:10507000002B00D174E700E000BF71E7794B1A788C
:10508000D20700D46CE77D4A002A00D168E718787F
:105090000007C00F00E000BF62E72078FFF774FE52
:1050A00000F02CFC764B002B00D159E700E000BF4C
:1050B00056E72078FFF768FE00F020FC2279694B64
:1050C0009A704DE70FB0F0BCBB46B246A946A04669
:1050D000F0BD62792078A36800F02EFC40E76948B3
:1050E0000028B6D000F014FC012138000CAA00E022
:1050F00000BF002800D033E7ABE7202A00D18AE0C8
:10510000002AA6D16379092BA3D85F4A9B00D35804
:105110009F467023217A0B429BD1C80984460F33E6
:105120000B405B000293EB1863440190D87C8446EB
:105130004E48002808D04E4863460078844500D287
:10514000B7E0181AC3B29C466046002800D081E040
:10515000002A73D14D4B98466079022302000390D8
:105160009A43012A00D14BE1002800D071E7019A4F
:10517000029B9446EB1863443033DB780AAA9B0702
:10518000DB0F02321380380002230CA900F07EFBF3
:10519000E6E65A00D3183E4ADB001268D318002B0B
:1051A00090D01F6928E7237A0F2B00D951E72F48A9
:1051B000EB18DB78002805D02D4A127893426BD388
:1051C0009B1ADBB2002B00D043E7304B31489846A6
:1051D00000F09EFB434601213800DB680CAA98478B
:1051E000002800D0BCE660221100237919408846CF
:1051F0001A4200D02DE763790A3B012B00D928E73A
:1052000000F086FB63790A2B00D151E138000CA92C
:1052100000F024FBA4E6237A0F2B00D919E71348EA
:10522000EB18DB78002806D0114A1278934200D29E
:105230000CE19B1ADBB2002B00D00AE7134B154898
:10524000984600F065FB434601213800DB680CAA54
:1052500098474EE7002A00D0FBE6002398467BE7FC
:10526000D0A100109C0F0020F40F00206945001011
:10527000A0B60120B55D0010000000000000000095
:105280000000000000000000F4A100105CA200106B
:10529000740C0020D15C00105A00D318CD4ADB00FA
:1052A0001268904698444346002B00D1D1E6D86856
:1052B0008EE75800C74B60441B68C0009846804486
:1052C000002A00D148E74346002B00D1C1E6D86848
:1052D000B7E7A37902931A006B789A4207D06B78EC
:1052E000002B00D048E1029B002B00D0E4E0029BA1
:1052F00038000CA96B7000F0B1FA31E60CA800F090
:105300000DFB3800A179FFF7B7FB02222B7813437E
:105310002B7025E6E388012B00D09AE608222B7833
:10532000380013430CA92B7000F098FA18E6E388B4
:10533000012B00D08DE608222B78380093430CA96E
:105340002B7000F08BFA0BE6022029780AAB9A1C2E
:105350008B068908DB0F01400B4313E70AAA6B7821
:1053600002321370380001230CA900F08FFAF7E520
:10537000E088030AC0B20F2B00D96AE696499A006A
:105380008A589746954B002B00D162E600E000BF9B
:10539000021E00D15DE6D37891781B020B433800E2
:1053A0000CA900F073FAA4E68D4B002B00D150E657
:1053B00000E000BF021E00D14BE6380013780CA9B4
:1053C00000F064FA95E62189FFF7CCFA021EF4D1C9
:1053D0003FE6022B00D1E7E0824B002B00D138E6FC
:1053E00000E000BF0200002A00D132E6D3E7FFF759
:1053F000B1FA122302000CA9380000F047FA78E64F
:10540000E288002A0CD1039B012B2BD0019A029B2E
:105410009446EB18634430330193DB789B0739D50E
:105420004346002B00D19BE5D86800F071FA434653
:105430000121DB680CAA38009847002000F068FAC8
:105440003423EB5CDB0700D58AE5DFE65A00D3188E
:10545000604ADB001268904698444346002B00D116
:10546000F7E534E7019A029B9446EB186344303326
:105470000193DB789B07D3D55B4B1878FFF71EFCB5
:105480000221019AD3788B43D370D37803998B434D
:10549000D370C5E7544B1878FFF7F4FB022201994B
:1054A000CB7813430122CB70CB781343CB70B7E793
:1054B0000AAB9A1C434654E7581EC0B2FFF74EFA97
:1054C000002800D1C5E543780893022B00D0C0E541
:1054D0000121C279931152110B400A4012015B0164
:1054E00013432A782F318A4313432B70092398469C
:1054F00080448278C378079747461B021343C3183A
:105500000393039BBB4253D901227B7801920B2B5F
:1055100003D1FB7801933B78FF187B78042B00D0F4
:1055200097E500229046314A039B09924246DB1BD5
:10553000B84617009BB204932D4B1B78099A002A9A
:1055400030D09F4223D3FB1ADBB2002B00D080E582
:10555000284A294B05924146049A07989847069095
:10556000082802D9049A82422AD2214B01371B789B
:10557000FFB2BB42E2D26CE53800FFF76DFBAB78BF
:1055800038009846FFF700FC4346AB70ABE6114B82
:105590001A6853467B43D3180593002B00D158E576
:1055A0009B68D8E73B00D0E7FFF7D8F902001AE77D
:1055B000124B079F002B00D199E600E000BF96E652
:1055C0003B0047469846019B012B37D000224046BE
:1055D00021E0C046740C00201CA200100000000056
:1055E00000000000000000001C0B002069450010B6
:1055F000A0B601205CA200101D5C0010000000009D
:10560000BB78D318DBB2EB18D978FF2900D020E59E
:105610000132D870D2B2019B9A42F1D10300390015
:105620008046069A584600F0CDFC069B9C46074BE8
:1056300067441B78434500D363E70AE5059A044BAA
:1056400092689A42C2D1089B0193BFE7A0B601209D
:105650001D5C0010F8B557464E46DE4645460C0028
:10566000E0B516001F00002A3CD0702398461E4B60
:1056700000259B461D4B9A461AE05B461B7820008E
:1056800099465346997800F061FC00281CD021000F
:105690004846FFF75DFA002816D0A378DA09012AF8
:1056A00019D00A9A013513702378E418B54219DA33
:1056B0006378052B08D1E3789B079B0FBB4203D18E
:1056C0004246A3781A42D8D00020F0BCBB46B2466E
:1056D000A946A046F8BD0B9A013513702378E4184B
:1056E000B542E5DB0120F0E71C0B00209C0F0020F9
:1056F000802310B51B0184B001930E4B02901C68EF
:1057000003916269EFF3108372B611680029FCD02F
:10571000BFF35F8FA361200001A900F0B1FF6269B0
:10572000A369BFF35F8F0021116083F3108804B079
:1057300010BDC046F40F0020702270B58B780C00AD
:105740001A4201D0002070BD064B20001D78064B88
:10575000997800F0FBFB0028F4D021002800FFF727
:10576000F7F9F0E71C0B00209C0F0020074B080006
:1057700019687F2310B50340C0095B003330181847
:10578000034B181800F09EFB10BDC046F00F002020
:105790009C0F0020074B080019687F2310B50340B9
:1057A000C0095B0033301818034B181800F0B2FB27
:1057B00010BDC046F00F00209C0F00207F2070B568
:1057C00008400F4C4000CD09241864193034E578A6
:1057D0000020ED0700D570BD0126E5780948354366
:1057E0000078E570FFF73CFA0028F4D10122E37855
:1057F0009343E370E37803329343E370EBE7C046EF
:105800009C0F00201C0B0020F8B5124C0500A2894B
:10581000E089111A0F1C89B2402900D9402723784A
:10582000BFB27F2B0AD80021824205D00A4A3B0032
:105830002800FFF7C3FFF8BD0022F8E7802182426D
:10584000FAD0054E3A00A1683000FEF793FC8021A3
:105850003200ECE7400F00205C0F002070B50A4ECC
:105860000C00050008223000FEF784FC00237F2195
:105870002278B360F36091425B412800D901002295
:105880000023FFF79BFF70BD400F0020F8B5CE4608
:1058900047469146184E80B50822070030000D009B
:1058A0009846FEF767FC4B46B3600023F381EC7922
:1058B000A97924020C43231C444500D943469AB2DB
:1058C000B381002C0BD0002A02D04B46002B11D004
:1058D0003800FFF799FFC0BCB946B046F8BD7F223B
:1058E0002B7838009A42644100230022E101FFF73F
:1058F00065FFF0E70020EEE7400F002010B514220E
:1059000000210248FEF730FC10BDC046400F0020C9
:10591000014B18617047C046400F002010B5054C80
:10592000010008222000FEF725FC0023A360E360AD
:1059300010BDC046400F002070B52C4C1D002378D0
:105940000600DA09C9098A4213D00020002D00D0D0
:1059500070BD274B002B03D021003000FFF7EAF881
:105960002369002B35D02200032130009847012005
:10597000EEE77F2B06D8A068002828D02A001D4912
:10598000FEF7F8FBA268E38952195B19A260E2886E
:105990009BB2E3819A4205D03F2D03D93000FFF737
:1059A00033FFD5E72369002B05D022000221300008
:1059B000984700280FD07F220021237830009A4298
:1059C000494100230022C901FFF7F8FEC0E700208B
:1059D000BEE70120BCE700213000FFF753F930009B
:1059E0008021FFF74FF90120B2E7C046400F0020A9
:1059F000354B00105C0F002070B505001035040019
:105A0000280000F0D1FD3F2800D870BD0020E178CB
:105A1000FFF7ACFE0028F8D0280000F0C5FD3F28B5
:105A200008D992239B00E218E17840230020FFF779
:105A3000C5FEEAE7E1780020FFF7ACFEE5E7C046E7
:105A400010B50400FFF7EAF9002801D1002010BDCD
:105A5000FFF7ECF90028F9D1B22080004443034855
:105A60000019037901201840F1E7C046780C0020A6
:105A7000B2239B00584310B5024B1030C01800F001
:105A800075FD10BD780C002070B5B224A40044430D
:105A90002000064E103092B2801900F0C3FD0500C0
:105AA000A019FFF7A9FF280070BDC046780C0020A0
:105AB000F8B50400FFF7B2F9002801D10020F8BDC5
:105AC000FFF7B4F90028F9D1B22080004443250043
:105AD000144E2435AD19280000F048FD0028EDD003
